:1000000060C00000FDCF0000FBCF0000F9CF000072
:10001000F7CF000037C00000F3CF0000F1CF0000A1
:10002000EFCF0000EDCF0000EBCF0000E9CF0000E4
:10003000E7CF0000E5CF0000E3CF0000E1CF0000F4
:10004000DFCF0000DDCF0000DBCF0000D9CF000004
:10005000D7CF0000D5CF0000D3CF0000D1CF000014
:06006000CFCF0000CDCF60
:1000C200BFEFBDBFB8E0BEBFB0E8BFBFB091680030
:1000D200B460B0936800BFEFB0936D00BFEFB4B9E6
:0800E200B0E0B5B9FFCFFFCF7C
:0E007600EC2FFD2F05900D920197E1F70895F4
:10008400EF93FF93BF93BFB7BF93B9B1B2FD04C061
:10009400B5B1B160B5B903C0B5B1BE7FB5B9B9B139
:1000A400B3FD04C0B5B1B260B5B903C0B5B1BD7F8D
:0E00B400B5B9BF91BFBFBF91FF91EF911895F5
:00000001FF
