:10000000FEC20000FDCF0000FBCF0000F9CF0000D2
:10001000F7CF0000F5CF0000F3CF0000F1CF0000D4
:10002000EFCF0000EDCF0000EBCF0000E9CF0000E4
:10003000E7CF0000E5CF0000E3CF0000E1CF0000F4
:10004000DFCF0000DDCF0000DBCF0000D9CF000004
:10005000D7CF0000D5CF0000D3CF0000D1CF000014
:06006000CFCF0000CDCF60
:1005FE00BFEFBDBFB8E0BEBF39D02F923F924F9232
:10060E005F92BAB1BE7FBAB929DEB1E02B2E47DFB9
:10061E00BCE02B2E44DFB0E04B2EB1E05B2EB6E0FB
:10062E003B2EB1E02B2E9DDFB0917A00B068B093D7
:10063E007A00222431DF0093040110930501B6E005
:10064E004B2EB1E05B2E1801A9DDB6E04B2EB1E0CA
:10065E005B2EB2E03B2EB2E02B2E83DFEACF5F9013
:08066E004F903F902F90FFCF49
:10026A00B0912B00BF7BB0932B00B0912B00BF77CE
:10027A00B0932B00B0912500BF7EB0932500B091BA
:10028A002500B77FB0932500B0912500BB7FB093BE
:10029A002500B0912500BD7FB0932500B0912A00BA
:1002AA00B064B0932A00B0912A00B068B0932A00D3
:1002BA00B0912400B260B0932400B0912400B460DD
:1002CA00B0932400B0912400B860B0932400B09198
:1002DA002400B061B09324005ADF59DF58DFB0918F
:1002EA002500B460B0932500B0912500B260B093A8
:1002FA002500B0912B00B064B0932B0042DFB0917F
:10030A002B00BF7BB0932B0042DFB0912B00B0646F
:10031A00B0932B0036DFB0912B00BF7BB0932B003C
:10032A0036DFB0912B00B064B0932B002ADFB09176
:10033A002B00BF7BB0932B002ADFB0912500BD7F35
:10034A00B0932500B0912B00B064B0932B0019DF55
:10035A00B0912B00BF7BB0932B0019DFB0912B001B
:10036A00B064B0932B000DDFB0912B00BF7BB0932C
:10037A002B00B0912500BB7FB0932500B0912500DA
:10038A00B061B0932500B0912B00B064B0932B00FC
:10039A00F8DEB0912B00BF7BB0932B00F8DEB09152
:1003AA002500BF7EB0932500B0912500B260B093BE
:1003BA002500B0912B00B064B0932B00E2DEB0911F
:1003CA002B00BF7BB0932B00B0912500BD7FB0936B
:1003DA002500B0912B00B064B0932B00D2DEB0910F
:1003EA002B00BF7BB0932B00D2DEB0912B00B06400
:1003FA00B0932B00C6DEB0912B00BF7BB0932B00CD
:10040A00B0912500B260B0932500B0912B00B06482
:10041A00B0932B00B6DEB0912B00BF7BB0932B00BC
:10042A00B6DEB0912500BD7FB0932500B0912B00B8
:10043A00B064B0932B00A5DEB0912B00BF7BB093C4
:10044A002B00B0912500B061B0932500B091250032
:10045A00B860B0932500B0912500B460B093250030
:10046A00B0912500B260B0932500B0912B00B06422
:10047A00B0932B0086DEB0912B00BF7BB0932B008C
:0E048A0086DEB0910D01B160B0930D010895B2
:100198001AE303E20A95F1F71A95E1F70000000067
:0201A8000895B8
:0C018C0002E00A95F1F700000000089561
:1004AC0027FAB0912500B4F9B093250026FAB09143
:1004BC002500B3F9B093250025FAB0912500B2F9C7
:1004CC00B093250024FAB0912500B1F9B093250022
:1004DC00B0910D0100902B00E894B0FF689407F8E0
:1004EC0000922B00B0912B00B064B0932B0048DE2F
:1004FC00B0912B00BF7BB0932B0023FAB091250059
:10050C00B4F9B093250022FAB0912500B3F9B09359
:10051C00250021FAB0912500B2F9B093250020FAFC
:10052C00B0912500B1F9B0932500B0910D01009068
:10053C002B00E894B0FF689407F800922B00B09160
:10054C002B00B064B0932B001BDEB0912B00BF7B53
:10055C00B0932B00B0910D01B0FF02C017DE01C0AB
:04056C000ADE089506
:0A01820005E80A95F1F70000089562
:100570002F920FC0B0E82B2E19C0B0EC2B2E16C056
:10058000B4E92B2E13C0B4ED2B2E10C0B0E82B2EE7
:100590000DC0B1E02B1671F3B2E02B1671F3B3E08E
:1005A0002B1671F3B4E02B1671F3F0CF032D01502D
:1005B000020D202E202E7ADFB0910D01BE7FB09368
:1005C0000D0110E0E12FF0E0E40DF51D00810023A6
:1005D00079F0E12FF0E0E40DF51D00811F932F92DB
:1005E000202E65DD2F901F91012F0F5F102FEACF76
:0E05F000B0910D01B160B0930D012F900895F0
:1000AE00B0910D01BE7FB0930D01F9D1B0910D014C
:0800BE00B160B0930D0108953B
:0604A600F6DD52DE0895B0
:10009400B7EAB0930E01B0E0B0930F01B7E8B093A4
:0A00A4007A00B0E0B0937C000895EC
:10014E0000917C00007E022900937C00B0917A0021
:10015E00B064B0937A00B0917A00B6FF01C0FBCFC5
:10016E002091780030E000917900102F0027022BAB
:04017E00132B0895A2
:1001AA00CF93DF93CDB7DEB72497CDBFDEBF2196BD
:1001BA002F923F92B0E0B883B9832A823B8200E053
:1001CA0010E02016310654F4B1E0B883B0E0B983E8
:1001DA0000E010E0021913090A831B832A803B807E
:1001EA006DDF66E070E0AB0100E010E00417150770
:1001FA0090F49A01240D351D8A0101501040F8012E
:10020A00E40DF51D0081F90100838A0101501040B7
:10021A00B801AB01E9CFF201B0E2B08308811981DC
:10022A00B02FB12BA9F020E030E0F901E40DF51D63
:10023A000081003229F489010F5F1F4F9801F5CF21
:10024A00890101501040F801E40DF51DBDE2B083AB
:10025A003F902F902396CDBFDEBFDF91CF910895B7
:00026A0094
:1000C600CF93DF93CDB7DEB72297CDBFDEBF2196A4
:1000D60010E0153050F4E12FF0E0E40DF51DB0E22C
:1000E600B083012F0F5F102FF4CFE12FF0E0E40D66
:1000F600F51DB0E0B083012F0150302F032F10E023
:10010600040D151D088319834AE050E08101ABDF19
:100116008D01202F205D08811981F80120834AE096
:1001260050E08101A0DF8C011801103009F4003085
:1001360009F404C0032F0150302FE0CF2196CDBF24
:08014600DEBFDF91CF910895A7
:10006C00C801BA01AA1BBB1B51E107C0AA1FBB1FC9
:10007C00A617B70710F0A61BB70B881F991F5A9528
:08008C00A9F7809590950895F5
:0E049800EC2FFD2F05900D920197E1F70895CE
:10067A00A0E0B1E0C6E6D0E084E090E008DF0895AB
:0400660041444300CE
:00000001FF
