:100000007FC00000FDCF0000FBCF0000F9CF000053
:10001000F7CF0000F5CF0000F3CF0000F1CF0000D4
:10002000EFCF0000EDCF0000EBCF0000E9CF0000E4
:10003000E7CF0000E5CF0000E3CF0000E1CF0000F4
:10004000DFCF0000DDCF000044C00000D9CF0000AA
:10005000D7CF0000D5CF0000D3CF0000D1CF000014
:06006000CFCF0000CDCF60
:10010000BFEFBDBFB8E0BEBFB4B1B160B4B9B4B168
:10011000B260B4B9B5B1BE7FB5B9B5B1BD7FB5B93F
:10012000B0E8BFBFB091C100B068B093C100B0915A
:10013000C100B061B093C100B6E1B093C200B3E3B7
:10014000B093C400B0E0B093C5009CDF25E01FE091
:1001500002EF0A95F1F71A95E1F72A95D1F725E014
:100160001FE002EF0A95F1F71A95E1F72A95D1F70A
:04017000F6CFFFCFF8
:10008400BFEFB0930401BFEFB0930501BFEFB0938E
:100094000601BFEFB0930701BFEFB0930201BFEFBA
:1000A400B0930301BFEFB0930001BFEFB093010120
:1000B400BAB1BE7FBAB9BAB1B260BAB90091C100DF
:0E00C40008610093C100B6E0B093C200089539
:0E007600EC2FFD2F05900D920197E1F70895F4
:1000D2000F920F93EF93FF93BF93BFB7BF9300911C
:1000E200C600013621F405B0B1E00B2605B8BF9178
:0E00F200BFBFBF91FF91EF910F910F90189536
:00000001FF
