:100000005EC00000FDCF0000FBCF0000F9CF000074
:10001000F7CF0000F5CF0000F3CF0000F1CF0000D4
:10002000EFCF00002FC00000EBCF0000E9CF0000B1
:10003000E7CF0000E5CF0000E3CF0000E1CF0000F4
:10004000DFCF0000DDCF0000DBCF0000D9CF000004
:10005000D7CF0000D5CF0000D3CF0000D1CF000014
:06006000CFCF0000CDCF60
:1000BE00BFEFBDBFB8E0BEBF17D0B0E8BFBFB091B5
:1000CE007000B160B0937000B3E0B093B100B6E0D1
:1000DE00B093B200B4B1B160B4B9B5B1BE7FB5B929
:0400EE00FFCFFFCF72
:0E007600EC2FFD2F05900D920197E1F70895F4
:1000F600A0E0B1E0C6E6D0E081E090E0B9DF089587
:100084000F92EF93FF93BF93BFB7BF93009100010B
:100094000F5F0093000100910001043639F4B0E0D1
:1000A400B093000105B0B1E00B2605B8BF91BFBF06
:0A00B400BF91FF91EF910F90189596
:010066000099
:00000001FF
