:10000000D4C20000FDCF0000FBCF0000F9CF0000FC
:10001000F7CF0000F5CF0000F3CF0000F1CF0000D4
:10002000EFCF0000EDCF0000EBCF0000E9CF0000E4
:10003000E7CF0000E5CF0000E3CF0000E1CF0000F4
:10004000DFCF0000DDCF0000DBCF0000D9CF000004
:10005000D7CF0000D5CF0000D3CF0000D1CF000014
:06006000CFCF0000CDCF60
:1005AA00BFEFBDBFB8E0BEBF43D02F923F924F927C
:1005BA005F92B6E0B0938100BAB1BF7DBAB9C9DD26
:1005CA00B1E02B2E8BDFBCE02B2E88DFB0E04B2E68
:1005DA00B1E05B2EB1E03B2EB1E02B2E38DF00916B
:1005EA008500302F22270091840010E0020F131F8C
:1005FA0000930A0110930B01BDE04B2EB1E05B2E74
:10060A001801C5DEBDE04B2EB1E05B2EB2E03B2EF9
:10061A00B2E02B2E1CDFE3CF5F904F903F902F90DC
:02062A00FFCF00
:10015C00B0912B00BF7BB0932B00B0912B00BF77DD
:10016C00B0932B00B0912500BF7EB0932500B091C9
:10017C002500B77FB0932500B0912500BB7FB093CD
:10018C002500B0912500BD7FB0932500B0912A00C9
:10019C00B064B0932A00B0912A00B068B0932A00E2
:1001AC00B0912400B260B0932400B0912400B460EC
:1001BC00B0932400B0912400B860B0932400B091A7
:1001CC002400B061B0932400B4DFB3DFB2DFB09190
:1001DC002500B460B0932500B0912500B260B093B7
:1001EC002500B0912B00B064B0932B00ABDFB09125
:1001FC002B00BF7BB0932B009CDFB0912B00B06425
:10020C00B0932B009FDFB0912B00BF7BB0932B00E2
:10021C0090DFB0912B00B064B0932B0093DFB091C2
:10022C002B00BF7BB0932B0084DFB0912500BD7FEA
:10023C00B0932500B0912B00B064B0932B0082DFFB
:10024C00B0912B00BF7BB0932B0073DFB0912B00D0
:10025C00B064B0932B0076DFB0912B00BF7BB093D2
:10026C002B00B0912500BB7FB0932500B0912500E9
:10027C00B061B0932500B0912B00B064B0932B000B
:10028C0061DFB0912B00BF7BB0932B0052DFB0919C
:10029C002500BF7EB0932500B0912500B260B093CD
:1002AC002500B0912B00B064B0932B004BDFB091C4
:1002BC002B00BF7BB0932B00B0912500BD7FB0937A
:1002CC002500B0912B00B064B0932B003BDFB091B4
:1002DC002B00BF7BB0932B002CDFB0912B00B064B4
:1002EC00B0932B002FDFB0912B00BF7BB0932B0072
:1002FC00B0912500B260B0932500B0912B00B06492
:10030C00B0932B001FDFB0912B00BF7BB0932B0061
:10031C0010DFB0912500BD7FB0932500B0912B006C
:10032C00B064B0932B000EDFB0912B00BF7BB09369
:10033C002B00B0912500B061B0932500B091250041
:10034C00B860B0932500B0912500B460B09325003F
:10035C00B0912500B260B0932500B0912B00B06431
:10036C00B0932B00EFDEB0912B00BF7BB0932B0032
:0E037C00E0DEB0910C01B160B0930C01089569
:10013E001AE303E20A95F1F71A95E1F700000000C1
:02014E00089512
:0C01500002E00A95F1F70000000008959D
:1004E60027FAB0912500B4F9B093250026FAB09109
:1004F6002500B3F9B093250025FAB0912500B2F98D
:10050600B093250024FAB0912500B1F9B0932500E7
:10051600B0910C0100902B00E894B0FF689407F8A6
:1005260000922B00B0912B00B064B0932B000DDE2F
:10053600B0912B00BF7BB0932B0023FAB09125001E
:10054600B4F9B093250022FAB0912500B3F9B0931F
:10055600250021FAB0912500B2F9B093250020FAC2
:10056600B0912500B1F9B0932500B0910C0100902F
:100576002B00E894B0FF689407F800922B00B09126
:100586002B00B064B0932B00E0DDB0912B00BF7B55
:10059600B0932B00B0910C01B0FF02C0CDDD01C0BD
:0405A60076DD089561
:0A00940005E80A95F1F70000089551
:100458002F920FC0B0E82B2E19C0B0EC2B2E16C06F
:10046800B4E92B2E13C0B4ED2B2E10C0B0E82B2E00
:100478000DC0B1E02B1671F3B2E02B1671F3B3E0A7
:100488002B1671F3B4E02B1671F3F0CF032D015046
:10049800020D202E202E23D0B0910C01BE7FB093E8
:1004A8000C0110E0E12FF0E0E40DF51D00810023C0
:1004B80079F0E12FF0E0E40DF51D00811F932F92F4
:1004C800202EE9DD2F901F91012F0F5F102FEACF0B
:0E04D800B0910C01B160B0930C012F9008950B
:10009E00B0910C01BE7FB0930C011ED2B0910C0139
:0800AE00B160B0930C0108954C
:10039800CF93DF93CDB7DEB72497CDBFDEBF2196CD
:1003A8002F923F92B0E0B883B9832A823B8200E063
:1003B80010E02016310654F4B1E0B883B0E0B983F8
:1003C80000E010E0021913090A831B832A803B808E
:1003D8006EDE66E070E0AB0100E010E00417150780
:1003E80090F49A01240D351D8A0101501040F8013E
:1003F800E40DF51D0081F90100838A0101501040C8
:10040800B801AB01E9CFF201B0E2B08308811981EC
:10041800B02FB12BA9F020E030E0F901E40DF51D73
:100428000081003229F489010F5F1F4F9801F5CF31
:10043800890101501040F801E40DF51DBDE2B083BB
:100448003F902F902396CDBFDEBFDF91CF910895C7
:00045800A4
:1000B600CF93DF93CDB7DEB72297CDBFDEBF2196B4
:1000C60010E0153050F4E12FF0E0E40DF51DB0E23C
:1000D600B083012F0F5F102FF4CFE12FF0E0E40D76
:1000E600F51DB0E0B083012F0150302F032F10E033
:1000F600040D151D088319834AE050E08101B3DF22
:100106008D01202F205D08811981F80120834AE0A6
:1001160050E08101A8DF8C011801103009F400308D
:1001260009F404C0032F0150302FE0CF2196CDBF34
:08013600DEBFDF91CF910895B7
:10006C00C801BA01AA1BBB1B51E107C0AA1FBB1FC9
:10007C00A617B70710F0A61BB70B881F991F5A9528
:08008C00A9F7809590950895F5
:0E038A00EC2FFD2F05900D920197E1F70895DD
:10063A00A0E0B1E0C0E3D6E08AE090E0A1DE089550
:0A063000436F6E7461646F723A004C
:00000001FF
