:1000000062C0000044C0000050C00000F9CF0000F2
:10001000F7CF0000F5CF0000F3CF0000F1CF0000D4
:10002000EFCF0000EDCF0000EBCF0000E9CF0000E4
:10003000E7CF0000E5CF0000E3CF0000E1CF0000F4
:10004000DFCF0000DDCF0000DBCF0000D9CF000004
:10005000D7CF0000D5CF0000D3CF0000D1CF000014
:06006000CFCF0000CDCF60
:1000C600BFEFBDBFB8E0BEBFB0E8BFBFBAE0B093F8
:1000D6006900B3E0BDBBBFEFB4B9B5B1BE7FB5B97A
:0400E600FFCFFFCF7A
:0E008000EC2FFD2F05900D920197E1F70895EA
:1000AA00EF93FF93BF93BFB7BF93B5B1BE7FB5B907
:0C00BA00BF91BFBFBF91FF91EF9118955F
:10008E00EF93FF93BF93BFB7BF93B5B1B160B5B94F
:0C009E00BF91BFBFBF91FF91EF9118957B
:00000001FF
