:100000006CC30000FDCF0000FBCF0000F9CF000063
:10001000F7CF0000F5CF0000F3CF0000F1CF0000D4
:10002000EFCF0000EDCF0000AAC30000E9CF000031
:10003000E7CF0000E5CF0000E3CF0000E1CF0000F4
:10004000DFCF0000DDCF0000DBCF0000D9CF000004
:10005000D7CF0000D5CF0000D3CF0000D1CF000014
:06006000CFCF0000CDCF60
:1006DA00BFEFBDBFB8E0BEBFC5D02F923F924F92C9
:1006EA005F92BEEFB4B9BFEFBAB9BBB1BF7EBBB9B7
:1006FA00B0E8BFBFB0918100B064B0938100B091FF
:10070A008100B160B0938100B0916F00B062B09384
:10071A006F0014DEBCE02B2EAFDDB0E04B2EB1E053
:10072A005B2EB4E03B2EB1E02B2E1FDFBAE04B2E3E
:10073A00B1E05B2EBDE03B2EB2E02B2E16DFBCDF14
:10074A00B1E14B2EB1E05B2E2090190130901A01D5
:10075A0053DFB1E14B2EB1E05B2EB2E03B2EB2E0AB
:10076A002B2E03DFECCF5F904F903F902F90FFCF5F
:00077A007F
:10034600B0912B00BF7BB0932B00B0912B00BF77F1
:10035600B0932B00B0912500BF7EB0932500B091DD
:100366002500B77FB0932500B0912500BB7FB093E1
:100376002500B0912500BD7FB0932500B0912A00DD
:10038600B064B0932A00B0912A00B068B0932A00F6
:10039600B0912400B260B0932400B0912400B46000
:1003A600B0932400B0912400B860B0932400B091BB
:1003B6002400B061B0932400CADEC9DEC8DEB09165
:1003C6002500B460B0932500B0912500B260B093CB
:1003D6002500B0912B00B064B0932B006EDEB09177
:1003E6002B00BF7BB0932B00B2DEB0912B00B06424
:1003F600B0932B0062DEB0912B00BF7BB0932B0035
:10040600A6DEB0912B00B064B0932B0056DEB091FF
:100416002B00BF7BB0932B009ADEB0912500BD7FE9
:10042600B0932500B0912B00B064B0932B0045DE4D
:10043600B0912B00BF7BB0932B0089DEB0912B00CF
:10044600B064B0932B0039DEB0912B00BF7BB09324
:100456002B00B0912500BB7FB0932500B0912500FD
:10046600B061B0932500B0912B00B064B0932B001F
:1004760024DEB0912B00BF7BB0932B0068DEB091D9
:100486002500BF7EB0932500B0912500B260B093E1
:100496002500B0912B00B064B0932B000EDEB09116
:1004A6002B00BF7BB0932B00B0912500BD7FB0938E
:1004B6002500B0912B00B064B0932B00FEDDB09107
:1004C6002B00BF7BB0932B0042DEB0912B00B064B3
:1004D600B0932B00F2DDB0912B00BF7BB0932B00C5
:1004E600B0912500B260B0932500B0912B00B064A6
:1004F600B0932B00E2DDB0912B00BF7BB0932B00B5
:1005060026DEB0912500BD7FB0932500B0912B006B
:10051600B064B0932B00D1DDB0912B00BF7BB093BC
:100526002B00B0912500B061B0932500B091250055
:10053600B860B0932500B0912500B460B093250053
:10054600B0912500B260B0932500B0912B00B06445
:10055600B0932B00B2DDB0912B00BF7BB0932B0084
:0E056600F6DDB0911801B160B0931801089550
:100154001AE303E20A95F1F71A95E1F700000000AB
:020164000895FC
:0C00C00002E00A95F1F70000000008952E
:1002820027FAB0912500B4F9B093250026FAB0916F
:100292002500B3F9B093250025FAB0912500B2F9F3
:1002A200B093250024FAB0912500B1F9B09325004E
:1002B200B091180100902B00E894B0FF689407F801
:1002C20000922B00B0912B00B064B0932B00F7DEAC
:1002D200B0912B00BF7BB0932B0023FAB091250085
:1002E200B4F9B093250022FAB0912500B3F9B09386
:1002F200250021FAB0912500B2F9B093250020FA29
:10030200B0912500B1F9B0932500B0911801009089
:100312002B00E894B0FF689407F800922B00B0918C
:100322002B00B064B0932B00CADEB0912B00BF7BD0
:10033200B0932B00B0911801B0FF02C00ADF01C0D8
:04034200B9DE089583
:0A00B60005E80A95F1F7000008952F
:100574002F920FC0B0E82B2E19C0B0EC2B2E16C052
:10058400B4E92B2E13C0B4ED2B2E10C0B0E82B2EE3
:100594000DC0B1E02B1671F3B2E02B1671F3B3E08A
:1005A4002B1671F3B4E02B1671F3F0CF032D015029
:1005B400020D202E202E63DEB0911801BE7FB09371
:1005C400180110E0E12FF0E0E40DF51D0081002397
:1005D40079F0E12FF0E0E40DF51D00811F932F92D7
:1005E400202E5BDD2F901F91012F0F5F102FEACF7C
:0E05F400B0911801B160B09318012F900895D6
:10009E00B0911801BE7FB0931801ECD0B091180149
:0800AE00B160B0931801089540
:1006C200BBB1B061BBB902E00A95F1F700000000CE
:0806D200BBB1BF7EBBB9089566
:10060200CF93DF93CDB7DEB72497CDBFDEBF219660
:100612002F923F92B0E0B883B9832A823B8200E0F6
:1006220010E02016310654F4B1E0B883B0E0B9838B
:1006320000E010E0021913090A831B832A803B8021
:1006420044DD66E070E0AB0100E010E0041715073E
:1006520090F49A01240D351D8A0101501040F801D1
:10066200E40DF51D0081F90100838A01015010405B
:10067200B801AB01E9CFF201B0E2B0830881198180
:10068200B02FB12BA9F020E030E0F901E40DF51D07
:100692000081003229F489010F5F1F4F9801F5CFC5
:1006A200890101501040F801E40DF51DBDE2B0834F
:1006B2003F902F902396CDBFDEBFDF91CF9108955B
:0006C20038
:1000CC00CF93DF93CDB7DEB72297CDBFDEBF21969E
:1000DC0010E0153050F4E12FF0E0E40DF51DB0E226
:1000EC00B083012F0F5F102FF4CFE12FF0E0E40D60
:1000FC00F51DB0E0B083012F0150302F032F10E01D
:10010C00040D151D088319834AE050E08101ADDF11
:10011C008D01202F205D08811981F80120834AE090
:10012C0050E08101A2DF8C011801103009F400307D
:10013C0009F404C0032F0150302FE0CF2196CDBF1E
:08014C00DEBFDF91CF910895A1
:10007600C801BA01AA1BBB1B51E107C0AA1FBB1FBF
:10008600A617B70710F0A61BB70B881F991F5A951E
:08009600A9F7809590950895EB
:0E016600EC2FFD2F05900D920197E1F7089503
:10086E00A0E0B1E0CCE5D8E081E190E075DC089540
:10077E000F922F923F920F931F932F933F934F936E
:10078E005F936F937F938F939F93AF93BF93CF930B
:10079E00DF93EF93FF93EF93FF93BF93BFB7BF9397
:1007AE002F923F9200908100B0E40B2600928100C0
:1007BE00B0918100B6FF0EC000918700302F222726
:1007CE000091860010E0020F131F00930D0110938D
:1007DE000E0122C000918700302F22270091860043
:1007EE0010E0020F131F00930F01109310010090E1
:1007FE000D0110900E010019110918012FDD4AE3A9
:10080E0050E0B1DC8B0100931B0110931C01D5DC71
:10081E000093190110931A013F902F90BF91BFBF03
:10082E00BF91FF91EF91FF91EF91DF91CF91BF912A
:10083E00AF919F918F917F916F915F914F913F916A
:0E084E002F911F910F913F902F900F901895B2
:10026A0000E010E0201631062CF400E010E002193C
:08027A00130901C08101089580
:1001C8006FE000C0262F30E0220F331F0DE111E051
:1001D800A901400F511F062F10E00150104098014F
:1001E800220F331F0DE111E0F901E00FF11F01911A
:1001F8001191FA0101931193262F30E0220F331F3A
:100208000DE111E0F901E00FF11F21913191009109
:100218003D0110913E01020F131F00933D01109301
:100228003E01062F0150602F003061F620911B011E
:1002380030911C0120931D0130931E0100913D0156
:1002480010913E01020F131F1695079516950795F5
:10025800169507951695079500933D0110933E0155
:020268000895F7
:10017400C801BA0197FB092E07260AD077FD04D0DF
:100184000CD006D000201AF4709561957F4F089525
:10019400F6F7909581959F4F0895AA1BBB1B51E1DB
:1001A40007C0AA1FBB1FA617B70710F0A61BB70BE3
:1001B400881F991F5A95A9F780959095BC01CD0188
:0401C40008950895FD
:0A085C0044697374616E6369610002
:03086600436D00DF
:0208690000008D
:02086B0000008B
:00000001FF
