:1000000065C00000FDCF0000FBCF0000F9CF00006D
:10001000F7CF0000F5CF0000F3CF0000F1CF0000D4
:10002000EFCF0000EDCF0000EBCF0000E9CF0000E4
:10003000E7CF0000E5CF0000E3CF0000E1CF0000F4
:1000400021C00000DDCF0000DBCF0000D9CF0000D1
:10005000D7CF0000D5CF0000D3CF0000D1CF000014
:06006000CFCF0000CDCF60
:1000CC00BFEFBDBFB8E0BEBFB4B1B160B4B9B5B19C
:1000DC00BE7FB5B9B0E8BFBFB0916E00B160B09350
:1000EC006E00B0E0B4BDB3E0B5BDB6E0B6BDFFCFB9
:0200FC00FFCF34
:0E007600EC2FFD2F05900D920197E1F70895F4
:100084000F92EF93FF93BF93BFB7BF93009100010B
:10009400109101010F5F1F4F0093000110930101A4
:1000A400103009F4023349F4B0E0B0930001B09386
:1000B400010105B0B1E00B2605B8BF91BFBFBF91E8
:0800C400FF91EF910F901895D8
:00000001FF
