:1000000068C00000FDCF0000FBCF0000F9CF00006A
:10001000F7CF0000F5CF0000F3CF0000F1CF0000D4
:10002000EFCF0000EDCF0000EBCF0000E9CF0000E4
:10003000E7CF000027C00000E3CF0000E1CF0000C1
:10004000DFCF0000DDCF0000DBCF0000D9CF000004
:10005000D7CF0000D5CF0000D3CF0000D1CF000014
:06006000CFCF0000CDCF60
:1000D200BFEFBDBFB8E0BEBFB4B1B160B4B9B5B196
:1000E200BE7FB5B9B0E8BFBFB0916F00B160B09349
:1000F2006F00B0E0B0938000B2E0B0938100B3E152
:0E010200B0938500BDEAB0938400FFCFFFCF1D
:0E007600EC2FFD2F05900D920197E1F70895F4
:100084000F92EF93FF93BF93BFB7BF93B6B3B0FD87
:1000940017C0B6B3B160B6BBB3E1B0938500BDEA97
:1000A400B0938400009100010F5F009300010A30B7
:1000B40039F4B0E0B093000105B0B1E00B2605B807
:0E00C400BF91BFBFBF91FF91EF910F901895B4
:00000001FF
